:1000000041C1000070C100006EC100006CC1000061
:100010006AC1000068C1000066C1000064C1000040
:1000200062C1000060C100005EC100005CC1000050
:100030005AC1000058C1000056C1000054C1000060
:1000400052C100000C94140B4EC100004CC10000C2
:100050004AC1000048C1000046C100000C94430A98
:1000600042C100000C940D0A0C94E4093CC100004C
:100070003AC1000038C1000036C1000034C10000A0
:100080000C94E70A30C100002EC100002CC1000012
:100090002AC1000028C1000026C1000024C10000C0
:1000A00022C1000020C100000C94BA0A1CC100004B
:1000B0001AC1000018C1000016C100000C948D0A7E
:1000C00012C1000010C100000EC100000CC10000F0
:1000D0000AC1000008C1000006C1000004C1000000
:1000E00002C10000D602D902C802CC02D00210031D
:1000F000DD02E102E702EB02EF02F502F902FD0286
:100100001003030307030B03084AD73B3BCE016EE2
:1001100084BCBFFDC12F3D6C74319ABD56833DDA5E
:100120003D00C77F11BED9E4BB4C3E916BAAAABE6D
:10013000000000803F072C7AA5BA6CC590DA3B938B
:1001400065FC8BBC53F810FD3C5692834DBD879DDA
:100150003AB63DCBC9BF5BBE73DA0FC93F05A84CA9
:10016000CDB2D44EB93836A9020C50B99186880860
:100170003CA6AAAA2ABE000000803F0000000A0B8D
:1001800002090C0D0E080703040100000000000026
:10019000000000000000000000000000000000005F
:1001A000000000000000000012111000000000001C
:1001B000000000000000000000000000000000003F
:1001C000000000002200250028002B002E00310036
:1001D000340002010000050108010B0100002100AC
:1001E000240027002A002D00300033000101000008
:1001F000040107010A0105050505070508080808A7
:10020000020202020A0A08080404040401010101AE
:1002100001010101030303030303030304070707A9
:100220000C0C0C0C0C0C0C0C02020202060606064E
:10023000060606060B0B0B0B0B0B0B0B010210201B
:10024000200808102040102040800201020108040C
:1002500002010102040810204080804020100804A0
:1002600002018004020180402010080402010804F9
:10027000020101020408102040800102040810203D
:100280004080420B11241FBECFEFD1E2DEBFCDBFB5
:1002900000E00CBF12E0A0E0B2E0ECE4F2E200E02B
:1002A0000BBF02C007900D92A638B107D9F724E022
:1002B000A6E8B2E001C01D92A533B207E1F711E054
:1002C000C2E4D1E000E006C021970109802FFE01C1
:1002D0000E941811C134D10780E00807A9F70E94D5
:1002E0000A0C0C9424118CCE90E0FC01E45CFD4FD0
:1002F0002491FC01EA50FE4F8491882399F090E00C
:10030000880F991FFC01E452FE4FA591B491FC01A6
:10031000EE53FE4F859194918FB7F894EC91E22BB8
:10032000EC938FBF0895CF93DF93FC0122812223AA
:1003300071F0EC018381D8DF8C81D6DF8A81843033
:1003400031F48D81D1DF8E81DF91CF91CDCFDF91DF
:10035000CF910895CF92DF92EF92FF920F931F9368
:10036000CF93DF936C017A018B01C0E0D0E0CE1512
:10037000DF0589F0D8016D918D01D601ED91FC91D9
:100380000190F081E02DC6011995892B11F47E01B1
:1003900002C02196ECCFC701DF91CF911F910F9141
:1003A000FF90EF90DF90CF900895089580E090E067
:1003B0000895FC01538D448D252F30E0842F90E06B
:1003C000821B930B541710F0CF9608950197089550
:1003D000FC01918D828D981761F0828DDF01A80F4D
:1003E000B11D5D968C91928D9F5F9F73928F90E06F
:1003F00008958FEF9FEF0895FC01918D828D9817DE
:1004000031F0828DE80FF11D858D90E008958FEF1A
:100410009FEF0895FC01918D228D892F90E0805CE3
:100420009F4F821B91098F739927089583E293E070
:10043000F1DF21E0892B09F420E0822F0895FC01EF
:10044000848DDF01A80FB11DA35ABF4F2C91848D5D
:1004500090E001968F739927848FA689B7892C9392
:10046000A089B1898C9180648C93938D848D98132D
:1004700006C00288F389E02D80818F7D80830895F6
:10048000EF92FF920F931F93CF93DF93EC0181E0E4
:10049000888F9B8D8C8D981305C0E889F9898081A0
:1004A00085FD23C0F62E0B8D10E00F5F1F4F0F73DD
:1004B0001127E02E8C8DE8120BC00FB607FCFACF87
:1004C000E889F989808185FFF5CFCE01B8DFF2CFC9
:1004D0008B8DFE01E80FF11DE35AFF4FF0820B8F69
:1004E000EA89FB898081806207C0EE89FF89608389
:1004F000E889F98980818064808381E090E0DF91E0
:10050000CF911F910F91FF90EF900895CF93DF93BC
:10051000EC01888D8823C1F0EA89FB89808185FD03
:1005200005C0A889B9898C9186FD0EC00FB607FC5D
:10053000F5CF808185FFF2CFA889B9898C9185FF9D
:10054000EDCFCE017CDFE8CFDF91CF910895362F3C
:1005500090E0FC01E458FE4F4491FC01E45CFD4F47
:100560002491FC01EA50FE4F9491992309F46BC049
:10057000442309F455C050E0FA013197E231F10506
:1005800008F04EC08827EE58FF4F8F4F0C9418117B
:10059000809180008F7707C0809180008F7D03C09D
:1005A00080918000877F809380003AC084B58F77E8
:1005B00002C084B58F7D84BD33C08091B0008F7739
:1005C00003C08091B0008F7D8093B00029C08091DE
:1005D00090008F7707C0809190008F7D03C080913D
:1005E0009000877F809390001BC08091A0008F7740
:1005F00007C08091A0008F7D03C08091A000877FFD
:100600008093A0000DC0809120018F7707C080915A
:1006100020018F7D03C080912001877F809320017E
:10062000E92FF0E0EE0FFF1FEE53FE4FA591B491BE
:100630008FB7F894EC91311103C020952E2301C09F
:100640002E2B2C938FBF0895CF93DF93DB01EA010C
:10065000FC01EA5EFC4F208127FF04C011961C922A
:100660001E920DC040815CE0589F9001599F300D53
:100670001124240F311D47FD3A9537FD208120813B
:100680002F5F20834CE0489F9001499F300D11243B
:100690008081A901480F511D87FD5A9557FF1EC043
:1006A00080818C30DCF44D915C918081B901680FC0
:1006B000711D87FD7A95CB01DB01AA0FBB1F8A0F45
:1006C0009B1FDC01AA57BD4F11968D919C911297EB
:1006D000840F951F99838883808111C08D919C918F
:1006E0001197049680349C4918F480E49CE903C077
:1006F0008D919C910496998388838FEF8083DF91FD
:10070000CF910895CF93DF93EC01613079F048F0F9
:100710006230B9F0633019F561E08B8118DF60E079
:1007200014C061E08B8113DF60E004C060E08B8166
:100730000EDF61E08C810BDF61E08D8108DF60E01E
:100740000AC060E08B8103DF61E08C8100DF60E044
:100750008D81FDDE61E08E81DF91CF91F8CEDF915A
:10076000CF910895CF93DF93EC01613049F030F0E1
:10077000623059F0633089F460E008C060E001C085
:1007800061E08B81E4DE61E004C061E08B81DFDE4B
:1007900060E08C81DF91CF91DACEDF91CF91089527
:1007A0001F93CF93DF93EC0111E020E030E0A9012B
:1007B0006F85788989899A890E94391018160CF0FA
:1007C00010E0612F8C81C3DE61E08B81C0DE60E0D0
:1007D0008B81DF91CF911F91BACECF93DF93EC0144
:1007E00020E030E0A9016F85788989899A890E9483
:1007F000391018161CF4EBA1FCA102C0EDA1FEA15A
:10080000DF91CF911994DC0112962C91213069F07F
:1008100028F0223089F02430B1F00895DC01ED9108
:10082000FC910280F381E02D1994DC01ED91FC91A3
:100830000480F581E02D0DC0DC01ED91FC91068076
:10084000F781E02D06C0DC01ED91FC910084F1857B
:10085000E02D1994CF92DF92EF92FF92CF93DF9326
:10086000EC01E881F9810284F385E02D19959B0163
:10087000AC016F87788B898B9A8B60E070E08AE798
:1008800094E40E94750E6B017C0120E030E0A90128
:100890000E94391018161CF4C701B60103C0C70125
:1008A000B60190580E94E20E6B8F7C8F8D8F9E8FC9
:1008B000DF91CF91FF90EF90DF90CF9008958F92CE
:1008C0009F92AF92BF92CF92DF92EF92FF92CF931F
:1008D000DF93EC014B855C856D857E858F819885E6
:1008E000A985BA85481759076A077B0709F455C0D7
:1008F0008FB7F894C0901F03D0902003E09021039D
:10090000F09022038FBF4B8D5C8D6D8D7E8D8F8D12
:1009100098A1A9A1BAA1840F951FA61FB71F8C1576
:100920009D05AE05BF05D8F58F849888A988BA883B
:1009300020E030E0A901C501B4010E943910181669
:1009400044F48F819885A985BA850196A11DB11DB2
:1009500010C020E030E0A901C501B4010E946E0E74
:1009600087FF0BC08F819885A985BA850197A1095A
:10097000B1098F839887A987BA87E881F9816F8148
:1009800063700190F081E02DCE011995CF8ED8A231
:10099000E9A2FAA2CE015EDF02C080E001C081E0E0
:1009A000DF91CF91FF90EF90DF90CF90BF90AF900D
:1009B0009F908F9008958091CB039091CC03A0914C
:1009C000CD03B091CE034091C7035091C80360910D
:1009D000C9037091CA03841B950BA60BB70B18169D
:1009E00019061A061B0624F480EC93E068DFE3CFB7
:1009F0000895CF93DF93009771F0FC0101900020E0
:100A0000E9F73197AF01481B590BBC0183E293E032
:100A1000A1DCEC0102C0C0E0D0E042E050E063E7BE
:100A200072E083E293E096DC8C0F9D1FDF91CF9103
:100A300008950E9420118F929F92AF92BF92CF9201
:100A4000DF92EF92FF920F931F93CF93DF93EC010E
:100A50008B859C85AD85BE850F81188529853A8556
:100A6000BC01CD01601B710B820B930B09F4CEC04E
:100A70008AF00E94100F9B01AC010E94A80D2F89E3
:100A8000388D498D5A8D0E9444100E94B1106B011F
:100A90007C011BC090958095709561957F4F8F4F1D
:100AA0009F4F0E94100F9B01AC010E94A80D2F893F
:100AB000388D498D5A8D0E9444100E94B1106B01EF
:100AC0007C01F7FAF094F7F8F0948F849888A9885D
:100AD000BA88A5019401C701B6010E943910181601
:100AE0000CF043C020E030E0A901C501B4010E9430
:100AF0006E0E81110BC06F89788D898D9A8D9B0147
:100B0000AC010E94A80D0E94B1101BC0A501940168
:100B10006F89788D898D9A8D0E94750E6B017C018D
:100B200020E030E0A9010E943910181624F0F7FAED
:100B3000F094F7F8F094A7019601C501B4010E9462
:100B4000A80D7B018C01BB88CC88DD88CE892B2D3C
:100B50003C2D4D2D5C2F0E94391018160CF05BC0F7
:100B60003B2D7C2D8D2D9C2F5DC0A5019401C701CF
:100B7000B6010E946E0E87FF52C020E030E0A9014E
:100B8000C501B4010E946E0E811110C06F89788D6D
:100B9000898D9A8D9B01AC01DBD70E94B1106B014E
:100BA0007C01F7FAF094F7F8F0941CC0A5019401C9
:100BB0006F89788D898D9A8D0E94750E6B017C01ED
:100BC00020E030E0A9010E943910181624F0F7FA4D
:100BD000F094F7F8F094A7019601C501B401B7D7D6
:100BE0006B017C018B889C88AD88BE88B7FAB09475
:100BF000B7F8B094A5019401C701B6010E946E0E2A
:100C000087FF0DC0382D792DC5010CC030E070E094
:100C100080E090E007C03E2D7F2DC80103C03C2D31
:100C20007D2DC701C32ED72E7C01C701B601DF91F0
:100C3000CF911F910F91FF90EF90DF90CF90BF90D9
:100C4000AF909F908F9008958F929F92AF92BF9296
:100C5000CF92DF92EF92FF9269017A019B01AC0182
:100C60000E9444104B015C01A7019601C701B60127
:100C70000E9444109B01AC01C501B40169D70E94D8
:100C8000B1109B01AC010E9444109B01AC016BE8C8
:100C90007DE788EA92E45BD72CE638E748EA52E43D
:100CA0000E94750E46D721EE3EE245E652E40E94D0
:100CB0004410FF90EF90DF90CF90BF90AF909F9047
:100CC0008F9008958F929F92AF92BF92CF92DF92B2
:100CD000EF92FF9269017A019B01AC010E944410DE
:100CE0004B015C01A7019601C701B6010E944410A7
:100CF0009B01AC01C501B4012BD70E94B1106B015F
:100D00007C019B01AC010E94441028EF34EE45E2C7
:100D100052E41ED72EE136E14BE252E418D74B01E4
:100D20005C012BE734E14EE451E4C701B6010E94B7
:100D300044109B01AC01C501B401D7D7FAD621EE0E
:100D40003EE245E652E40E944410FF90EF90DF90AF
:100D5000CF90BF90AF909F908F9008954F925F92E9
:100D60006F927F928F929F92AF92BF92CF92DF92BB
:100D7000EF92FF92CF93DF9300D01F92CDB7DEB7F3
:100D80006B017C0149015A0120E030E0A9010E9479
:100D9000391020E030E0A90187FD6DC0C701B60120
:100DA0009DD7882371F0A7019601C501B40143D7EF
:100DB00021EE3EE245E652E40E9444102B013C0144
:100DC00006C0412C512C84EB682E82E4782EA501BC
:100DD0009401C701B60176DF9B01AC01C301B201EA
:100DE000B7D69B01AC0160E070E084EB92E4AFD633
:100DF00020E030E048EC55E40E94441020E030E070
:100E000044EB53E472D7D9D76093190470931A0452
:100E100080931B0490931C048EE094E01BDDA501DD
:100E20009401C701B60110DF9B01AC0160E070E0E6
:100E300084E393E48CD620E030E048EC55E40E9453
:100E4000441023E738E641ED5FE30E94441020E0C0
:100E500030E044EB53E449D7B0D76093F20370938A
:100E6000F3038093F4039093F50387EE93E0F2DCB1
:100E700020E030E0A901C701B60130D787FF81C06B
:100E8000A7019601C501B401D6D62B013C01A501ED
:100E90009401C701B60116DF69837A838B839C8333
:100EA00021EE3EE245E652E4C301B2010E94441045
:100EB00029813A814B815C814AD69B01AC0160E07B
:100EC00070E084EB92E443D620E030E048EC55E457
:100ED0000E94441020E030E044EB53E406D76DD785
:100EE0006093190470931A0480931B0490931C045C
:100EF0008EE094E0AFDCA5019401C701B601A4DE49
:100F000020E030E044E353E422D620E030E048EC37
:100F100055E40E94441023E738E641ED5FE30E9468
:100F2000441020E030E044EB53E4DFD646D7609332
:100F3000F2037093F3038093F4039093F50387EE29
:100F400093E088DC1EC04091F2035091F30360915E
:100F5000F4037091F5038091EE039091EF03A0915B
:100F6000F003B091F103481759076A077B07F9F0BE
:100F70008EE094E0A4DC87EE93E0A1DC80EC93E0CB
:100F80009EDC4091190450911A0460911B047091E9
:100F90001C048091150490911604A0911704B0913F
:100FA0001804481759076A077B0711F7CCCF4091FF
:100FB000CB035091CC036091CD037091CE0380910F
:100FC000C7039091C803A091C903B091CA03481701
:100FD00059076A077B0761F60F900F900F900F90EB
:100FE000DF91CF91FF90EF90DF90CF90BF90AF90C7
:100FF0009F908F907F906F905F904F9008954F9249
:101000005F926F927F928F929F92AF92BF92CF9298
:10101000DF92EF92FF920F931F93CF93DF93CDB7A1
:10102000DEB72C970FB6F894DEBF0FBECDBF83E2BC
:1010300093E0F0D9892B09F47DC183E293E0C8D90C
:101040008C0100531109C8018A589D4FD2DC01154B
:10105000110511F481E0F1C0409100029801220FC6
:10106000331FC80153E0880F991F5A95E1F7220FEB
:10107000331F220F331FF901EB5FFD4F442309F4A7
:10108000DFC0208131814281538129833A834B83A0
:101090005C83FC01EF5FFD4FC080D180E280F38074
:1010A00088EE93E0A0E0B0E08093CB039093CC0374
:1010B000A093CD03B093CE0380EC93E0CBDB7BDC3D
:1010C0002FE03BE045EB5EE369817A818B819C8177
:1010D0003ED52B013C012FE03BE045EB5EE3C70131
:1010E000B60135D56B017C01A301920137DE8EEC90
:1010F0009FEFAFEFBFEF8093CB039093CC03A09310
:10110000CD03B093CE0380EC93E0A4DB54DC02E388
:1011100010E0812C912C540120E030E048E452E4AE
:10112000C501B401E2D56D837E838F8398879B01CF
:10113000AC01C301B2010CD569877A878B879C8784
:101140002D813E814F815885C701B60101D5298582
:101150003A854B855C8502DE20E030E040E85FE3C5
:10116000C501B401F5D44B015C0101501109A1F690
:1011700088EE93E0A0E0B0E08093CB039093CC03A3
:10118000A093CD03B093CE0380EC93E063DB13DC3C
:101190002FE03BE045EB5EE369817A818B819C81A6
:1011A000D7D42B013C019B01AC01C701B601D6DDB0
:1011B0008EEC9FEFAFEFBFEF8093CB039093CC0308
:1011C000A093CD03B093CE0380EC93E043DBF3DB3D
:1011D00002E310E0812C912C540120E030E048E43F
:1011E00052E4C501B40181D569837A838B839C83E2
:1011F0009B01AC01C301B201AAD46D837E838F83AE
:10120000988729813A814B815C81C701B601A0D4BE
:101210002D813E814F815885A1DD20E030E040E8FE
:101220005FE3C501B40194D44B015C010150110985
:10123000A1F69091000281E08927809300027AC094
:10124000208131814281538129833A834B835C839E
:101250009C012F5F3D4FD9018D919D910D90BC91C7
:10126000A02D8D839E83AF83B88788EE93E0A0E0A6
:10127000B0E08093CB039093CC03A093CD03B093C5
:10128000CE0380EC93E0E6DA96DB00E010E08EEC33
:10129000482E55245A94652C752C0115110561F4BE
:1012A0004092CB035092CC036092CD037092CE0358
:1012B00080EC93E0CFDA7FDBB801012E000C880BC5
:1012C000990BAED526ED31E342EE50E4DDD620E0B9
:1012D00030E048E452E409D54B015C0138D76B019A
:1012E0007C01C501B401FED44B015C0120E030E07B
:1012F00040E05FE3C701B601C7D629813A814B813F
:101300005C8126D46B017C0120E030E040E05FE3AB
:10131000C501B401B9D62D813E814F81588518D4BD
:10132000A70196011BDD0F5F1F4F0233110509F066
:10133000B4CF7FCF2C960FB6F894DEBF0FBECDBFD3
:10134000DF91CF911F910F91FF90EF90DF90CF90A1
:10135000BF90AF909F908F907F906F905F904F90D5
:10136000089564D8811125C080E090E0892B41F078
:1013700080E090E0892B21F00E94000081111BC0C9
:1013800080E090E0892B41F080E090E0892B21F013
:101390000E940000811112C080E090E0892B99F03A
:1013A00080E090E0892B79F00E940000811109C053
:1013B000089525DED9CF0E940000E2CF0E940000F0
:1013C000EBCF0C94000008951F920F920FB60F926E
:1013D00011240BB60F922F933F934F935F936F930C
:1013E0007F938F939F93AF93BF93EF93FF9383E28A
:1013F00093E025D8FF91EF91BF91AF919F918F918D
:101400007F916F915F914F913F912F910F900BBE04
:101410000F900FBE0F901F9018951F920F920FB64E
:101420000F9211240BB60F922F938F939F93EF93EC
:10143000FF93E0913303F09134038081E09139030D
:10144000F0913A0382FD12C0908180913C038F5F3E
:101450008F7320913D03821751F0E0913C03F0E03F
:10146000ED5DFC4F958F80933C0301C08081FF911F
:10147000EF919F918F912F910F900BBE0F900FBE08
:101480000F901F9018951F920F920FB60F92112474
:101490002F933F938F939F93AF93BF9380911F039D
:1014A00090912003A0912103B091220330911E035B
:1014B00023E0230F2D3720F40196A11DB11D05C097
:1014C00026E8230F0296A11DB11D20931E038093D1
:1014D0001F0390932003A0932103B09322038091D4
:1014E0001A0390911B03A0911C03B0911D03019658
:1014F000A11DB11D80931A0390931B03A0931C039D
:10150000B0931D03BF91AF919F918F913F912F9108
:101510000F900FBE0F901F9018951F920F920FB64D
:101520000F9211240BB60F922F933F934F935F931B
:101530006F937F938F939F93AF93BF93EF93FF939B
:1015400048E251E064E271E080E090E07DD8FF91F4
:10155000EF91BF91AF919F918F917F916F915F912B
:101560004F913F912F910F900BBE0F900FBE0F9098
:101570001F9018951F920F920FB60F9211240BB661
:101580000F922F933F934F935F936F937F938F931C
:101590009F93AF93BF93EF93FF9348EA50E064EAC1
:1015A00070E083E090E050D8FF91EF91BF91AF9150
:1015B0009F918F917F916F915F914F913F912F916B
:1015C0000F900BBE0F900FBE0F901F9018951F929B
:1015D0000F920FB60F9211240BB60F922F933F93D9
:1015E0004F935F936F937F938F939F93AF93BF932B
:1015F000EF93FF9348E950E064E970E082E090E007
:1016000023D8FF91EF91BF91AF919F918F917F91DF
:101610006F915F914F913F912F910F900BBE0F9063
:101620000FBE0F901F9018951F920F920FB60F923A
:1016300011240BB60F922F933F934F935F936F93A9
:101640007F938F939F93AF93BF93EF93FF9348E85C
:1016500050E064E870E081E090E00E942403FF9194
:10166000EF91BF91AF919F918F917F916F915F911A
:101670004F913F912F910F900BBE0F900FBE0F9087
:101680001F901895BF92CF92DF92EF92FF920F9327
:101690001F93CF93DF93E3E2F3E01382128288EE8D
:1016A00093E0A0E0B0E084839583A683B78385E5CB
:1016B00092E09183808385EC90E09587848784EC29
:1016C00090E09787868780EC90E0918B808B81EC0F
:1016D00090E0938B828B82EC90E0958B848B86ECF0
:1016E00090E0978B868B118E128E138E148EEEE007
:1016F000F4E0C7E6D2E0D183C083BB24B394B282C6
:101700001782108611861286138614861586168611
:101710001786108A118A128AC12CD12C80E8E82EF3
:101720008FE3F82EC38AD48AE58AF68AC78AD08ED8
:10173000E18EF28E138E148E158E168E178E10A2D9
:1017400011A212A283E4838382E4848304E00583EC
:1017500015E01683CF010E949301E7EEF3E0D183F9
:10176000C083B28217821086118612861386148671
:10177000158616861786108A118A128AC38AD48A19
:10178000E58AF68AC78AD08EE18EF28E138E148E89
:10179000158E168E178E10A211A212A281E48383D9
:1017A00080E4848305831683CF010E949301E0ECDB
:1017B000F3E0D183C083B28217821086118612862D
:1017C00013861486158616861786108A118A128A41
:1017D000C38AD48AE58AF68AC78AD08EE18EF28ED1
:1017E000138E148E158E168E178E10A211A212A2B1
:1017F00085E4838384E4848305831683CF01DF91AA
:10180000CF911F910F91FF90EF90DF90CF90BF90FD
:101810000C949301789484B5826084BD84B5816012
:1018200084BD85B5826085BD85B5816085BD8091AB
:101830006E00816080936E00109281008091810023
:10184000826080938100809181008160809381001B
:10185000809180008160809380008091B1008460DD
:101860008093B1008091B00081608093B00080913E
:1018700091008260809391008091910081608093BB
:101880009100809190008160809390008091A100F0
:1018900082608093A1008091A10081608093A1006B
:1018A0008091A00081608093A000809121018260DE
:1018B0008093210180912101816080932101809199
:1018C000200181608093200180917A008460809360
:1018D0007A0080917A00826080937A0080917A0009
:1018E000816080937A0080917A00806880937A008A
:1018F0001092C100E0913303F091340382E08083C1
:10190000E0912F03F09130031082E0913103F091C8
:10191000320380E1808310923B03E0913703F09122
:10192000380386E08083E0913503F09136038081AF
:1019300080618083E0913503F09136038081886077
:101940008083E0913503F091360380818068808345
:10195000E0913503F091360380818F7D8083C12C27
:10196000D12C8AE7E82E84E4F82EC0922504D09288
:101970002604E0922704F09228048EE094E00E946E
:101980002A0480E090E0AAEFB4E48093FE039093F1
:10199000FF03A0930004B093010487EE93E00E943C
:1019A0002A04C092D703D092D803E092D903F092D0
:1019B000DA0380EC93E00E942A0480E090E8ABE335
:1019C000B5E48093D3039093D403A093D503B0934D
:1019D000D60380EC93E00E942A0480E398EFAFEFF7
:1019E000BFEF8093190490931A04A0931B04B09343
:1019F0001C048EE094E00E942A048EEB91EFAFEF7E
:101A0000BFEF8093F2039093F303A093F403B0939A
:101A1000F50387EE93E00E942A0480E891ECAFEF93
:101A2000BFEF8093CB039093CC03A093CD03B093EF
:101A3000CE0380EC93E00E942A0440911904509157
:101A40001A0460911B0470911C04809115049091FC
:101A50001604A0911704B0911804481759076A0793
:101A60007B0769F08EE094E00E945F0487EE93E0CC
:101A70000E945F0480EC93E00E945F04DECF4091FF
:101A8000F2035091F3036091F4037091F503809198
:101A9000EE039091EF03A091F003B091F10348178A
:101AA00059076A077B07F1F64091CB035091CC03AD
:101AB0006091CD037091CE038091C7039091C803CC
:101AC000A091C903B091CA03481759076A077B0759
:101AD00049F61092150410921604109217041092F1
:101AE00018041092EE031092EF031092F00310927C
:101AF000F1031092C7031092C8031092C903109209
:101B0000CA0388EE93E0A0E0B0E08093CB0390930B
:101B1000CC03A093CD03B093CE0380EC93E00E945E
:101B20002A040E94DB0480E892E00E94F90419DC98
:101B3000FECF9F939F77AFD10F9000203AF490583B
:101B4000A2EA2AED3FE049E450E413D047C25058DE
:101B5000BB27AA270ED042C20BD230F010D220F001
:101B600031F49F3F11F41EF4DBC10EF4E095E7FB66
:101B7000D1C1E92F55D280F3BA17620773078407E2
:101B8000950718F071F49EF56DC20EF4E0950B2EDA
:101B9000BA2FA02D0B01B90190010C01CA01A001BF
:101BA0001124FF27591B99F0593F50F4503E68F11A
:101BB0001A16F040A22F232F342F4427585FF3CF5B
:101BC000469537952795A795F0405395C9F77EF42C
:101BD0001F16BA0B620B730B840BBAF09150A1F075
:101BE000FF0FBB1F661F771F881FC2F70EC0BA0FFB
:101BF000621F731F841F48F4879577956795B79583
:101C0000F7959E3F08F0B3CF9395880F08F099277A
:101C1000EE0F979587950895ABD158F080E891E045
:101C200009F49EEFACD128F040E851E059F45EEFA2
:101C300009C076C117C2E92FE078F2D168F3092E06
:101C4000052AC1F3261737074807590738F00E2E23
:101C500007F8E02569F0E025E0640AC0EF6307F8C3
:101C6000009407FADB01B9019D01DC01CA01AD0155
:101C7000EF934AD0B3D10AD05F91552331F02BEDC9
:101C80003FE049E450FD49EC63CF0895DF93DD2741
:101C9000B92FBF7740E85FE31616170648075B07C2
:101CA00010F4D92FEAD19F938F937F936F9397D29C
:101CB000E8E0F1E038D192D12F913F914F915F91BF
:101CC000EFD1DD2349F09058A2EA2AED3FE049EC3C
:101CD0005FE3D0785D274DDFDF9180C1F7D008F456
:101CE00081E0089554D1E3958AC10CD077C147D1E2
:101CF00040F03ED130F021F45F3F19F00BC151119B
:101D0000B2C10EC18DD198F39923C9F35523B1F314
:101D1000951B550BBB27AA2762177307840738F05A
:101D20009F5F5F4F220F331F441FAA1FA9F333D0B9
:101D30000E2E3AF0E0E830D091505040E695001C6D
:101D4000CAF729D0FE2F27D0660F771F881FBB1F29
:101D5000261737074807AB07B0E809F0BB0B802D03
:101D6000BF01FF2793585F4F2AF09E3F510568F04F
:101D7000D1C079C15F3FECF3983EDCF3869577954F
:101D80006795B795F7959F5FC9F7880F911D969551
:101D9000879597F90895E1E0660F771F881FBB1FAD
:101DA000621773078407BA0720F0621B730B840B5A
:101DB000BA0BEE1F88F7E095089504D06894B1112E
:101DC00052C1089535D188F09F5790F0B92F9927C7
:101DD000B751A0F0D1F0660F771F881F991F1AF036
:101DE000BA95C9F712C0B13081F03CD1B1E0089585
:101DF00039C1672F782F8827B85F39F0B93FCCF306
:101E0000869577956795B395D9F73EF4909580952B
:101E1000709561957F4F8F4F9F4F0895E89409C04B
:101E200097FB3EF490958095709561957F4F8F4F0D
:101E30009F4F9923A9F0F92F96E9BB279395F69523
:101E4000879577956795B795F111F8CFFAF4BB0FA1
:101E500011F460FF1BC06F5F7F4F8F4F9F4F16C005
:101E6000882311F096E911C0772321F09EE8872F8F
:101E7000762F05C0662371F096E8862F70E060E04B
:101E80002AF09A95660F771F881FDAF7880F9695C4
:101E9000879597F90895DF93CF931F930F938B0145
:101EA000EC01E5E3F1E03FD099D09801AE018B0160
:101EB000EC0160E070E080E89FE349DE52D19801D8
:101EC000AE010F911F91CF91DF91EAC0990F0008E9
:101ED000550FAA0BE0E8FEEF16161706E807F907FC
:101EE000C0F012161306E407F50798F0621B730B97
:101EF000840B950B39F40A2661F0232B242B252B18
:101F000021F408950A2609F4A140A6958FEF811DBA
:101F1000811D089597F99F6780E870E060E008955B
:101F20009FEF80EC0895DF93CF931F930F93FF9261
:101F3000EF92DF927B018C01689405C0DA2EEF01ED
:101F4000AFD0FE01E894A591259135914591559129
:101F5000AEF3EF010EDEFE019701A801DA9479F7E6
:101F6000DF90EF90FF900F911F91CF91DF91089537
:101F700000240A9416161706180609060895002468
:101F80000A9412161306140605060895C9CF50D0F8
:101F9000E8F3E894E0E0BB279F57F0F02AED3FE03C
:101FA00049EC06C0EE0FBB0F661F771F881F28F095
:101FB000B23A62077307840728F0B25A620B730BB8
:101FC000840BE3959A9572F7803830F49A95BB0F9D
:101FD000661F771F881FD2F7904806C1092E039409
:101FE000000C11F4882352F0BB0F40F4BF2B11F406
:101FF00060FF04C06F5F7F4F8F4F9F4F0895EF9337
:10200000E0FF06C0A2EA2AED3FE049EC5FEBB1DD5C
:10201000E5DF0F90039401FC9058EDE5F1E0F7C087
:1020200057FD9058440F551F59F05F3F71F0479589
:10203000880F97FB991F61F09F3F79F0879508956E
:10204000121613061406551FF2CF4695F1DF08C08D
:10205000161617061806991FF1CF869571056105AA
:1020600008940895E894BB2766277727CB0197F952
:1020700008952CDF08F48FEF08959B01AC0160E018
:1020800070E080E89FE331CE0BD0A8CF71DF28F05D
:1020900076DF18F0952309F03DCF42CF1124E3CF2E
:1020A000BFDFA0F3959FD1F3950F50E0551F629FBE
:1020B000F001729FBB27F00DB11D639FAA27F00DA1
:1020C000B11DAA1F649F6627B00DA11D661F829FC8
:1020D0002227B00DA11D621F739FB00DA11D621FAD
:1020E000839FA00D611D221F749F3327A00D611DCA
:1020F000231F849F600D211D822F762F6A2F1124AC
:102100009F5750408AF0E1F088234AF0EE0FFF1FFE
:10211000BB1F661F771F881F91505040A9F79E3F35
:10212000510570F0F7CE9FCF5F3FECF3983EDCF3A4
:10213000869577956795B795F795E7959F5FC1F772
:10214000FE2B880F911D9695879597F908959F937B
:102150001EDF0F9007FCEE5F52CF11F40EF4E0CEBD
:1021600041C066DFD0F39923D9F3CEF39F57550BC7
:1021700087FF46D00024A0E640EA9001805856959B
:10218000979528F4805C660F771F881F20F026172C
:102190003707480730F4621B730B840B2029312961
:1021A0004A2BA69517940794202531254A2758F7DE
:1021B000660F771F881F20F026173707480730F46F
:1021C000620B730B840B200D311D411DA09581F70F
:1021D000B901842F9158880F9695879508959B0192
:1021E000AC0152CF9F3F31F0915020F48795779505
:1021F0006795B795880F911D9695879597F90895DE
:1022000091505040660F771F881FD2F708959F9313
:102210008F937F936F93FF93EF939B01AC0134DF18
:10222000EF91FF9180DE2F913F914F915F912CCFE5
:10223000EE0FFF1F881F8BBF0790F691E02D1994BA
:0C22400081E090E0F89400C0F894FFCF1B
:10224C000100C07944008078440000984000008070
:10225C00BF00008040000040400000C0400000A0D3
:10226C00C00000D840000080BF0000C0400000400B
:10227C0040000000410000A0C000000C41000080A4
:10228C00BF00000041000040400000204100000061
:10229C0000000000004002AA01D90186020A02E8EF
:1022AC0001FC01000000000304ED03D003B2038223
:1022BC00031B050D0A0072656369657665643A0057
:0622CC00537461727400FE
:020000023000CC
:10E000000D9489F10D94B2F10D94B2F10D94B2F129
:10E010000D94B2F10D94B2F10D94B2F10D94B2F1F0
:10E020000D94B2F10D94B2F10D94B2F10D94B2F1E0
:10E030000D94B2F10D94B2F10D94B2F10D94B2F1D0
:10E040000D94B2F10D94B2F10D94B2F10D94B2F1C0
:10E050000D94B2F10D94B2F10D94B2F10D94B2F1B0
:10E060000D94B2F10D94B2F10D94B2F10D94B2F1A0
:10E070000D94B2F10D94B2F10D94B2F10D94B2F190
:10E080000D94B2F10D94B2F10D94B2F10D94B2F180
:10E090000D94B2F10D94B2F10D94B2F10D94B2F170
:10E0A0000D94B2F10D94B2F10D94B2F10D94B2F160
:10E0B0000D94B2F10D94B2F10D94B2F10D94B2F150
:10E0C0000D94B2F10D94B2F10D94B2F10D94B2F140
:10E0D0000D94B2F10D94B2F10D94B2F10D94B2F130
:10E0E0000D94B2F141546D656761323536300041AF
:10E0F000726475696E6F206578706C6F72657220DE
:10E1000073746B3530305632206279204D4C530099
:10E11000426F6F746C6F616465723E004875683F52
:10E1200000436F6D70696C6564206F6E203D200048
:10E130004350552054797065202020203D20005FF9
:10E140005F4156525F415243485F5F3D2000415658
:10E1500052204C696243205665723D20004743437C
:10E160002056657273696F6E203D20004350552024
:10E1700049442020202020203D20004C6F7720663D
:10E18000757365202020203D20004869676820665F
:10E190007573652020203D200045787420667573D6
:10E1A00065202020203D20004C6F636B2066757336
:10E1B000652020203D20004D617220203720323024
:10E1C000313300312E362E3800342E332E350056A2
:10E1D00023202020414444522020206F7020636F70
:10E1E00064652020202020696E73747275637469E1
:10E1F0006F6E2061646472202020496E74657272B3
:10E20000757074006E6F20766563746F7200726A49
:10E210006D702020006A6D70200057686174207056
:10E220006F72743A00506F7274206E6F7420737541
:10E2300070706F72746564004D7573742062652030
:10E2400061206C6574746572002000577269747483
:10E25000696E672045450052656164696E672045B7
:10E26000450045452065727220636E743D00504F35
:10E27000525400303D5A65726F2061646472003FF1
:10E280003D43505520737461747300403D454550C3
:10E29000524F4D207465737400423D426C696E6B41
:10E2A000204C454400453D44756D70204545505215
:10E2B0004F4D00463D44756D7020464C415348001B
:10E2C000483D48656C70004C3D4C69737420492F83
:10E2D0004F20506F72747300513D51756974005234
:10E2E0003D44756D702052414D00563D73686F7707
:10E2F00020696E7465727275707420566563746FF0
:10E30000727300593D506F727420626C696E6B00BD
:10E310002A0011241FBECFEFD1E2DEBFCDBF01E046
:10E320000CBF12E0A0E0B2E0EEE1FDEF03E00BBFB6
:10E3300002C007900D92A030B107D9F712E0A0E01B
:10E34000B2E001C01D92AE30B107E1F70F9460F367
:10E350000D948DFE01E20EBF0FEF0DBF11241FBE05
:10E360000D9460F30D9400F020E030E040ED57E0B4
:10E3700005C0FA013197F1F72F5F3F4F2817390792
:10E38000C0F308959C01260F311DC901A0E0B0E043
:10E390002F5F3F4FABBFFC018791882361F08093D3
:10E3A000C6008091C00086FFFCCF8091C0008064D1
:10E3B0008093C000EACF08958DE08093C6008091DD
:10E3C000C00086FFFCCF8091C00080648093C000B5
:10E3D0008AE08093C6008091C00086FFFCCF8091C8
:10E3E000C00080648093C00008950F94C2F10F9420
:10E3F000DCF10895FC019081992359F09093C600B7
:10E400008091C00086FFFCCF8091C0008064809323
:10E41000C0003196992379F70895282F982F929567
:10E420009F70892F805D8A3308F0895F8093C600D2
:10E430008091C00086FFFCCF8091C00080648093F3
:10E44000C000822F8F70982F905D9A3308F0995FEB
:10E450009093C6008091C00086FFFCCF8091C000E1
:10E4600080648093C00008959C01FB01853691056E
:10E470001CF46330710594F0C90164E670E00F94F8
:10E480002EFE605D7F4F6093C6008091C00086FFC6
:10E49000FCCF8091C00080648093C0002B30310598
:10E4A00014F43297B4F0C90164E670E00F942EFEC4
:10E4B0006AE070E00F942EFE605D7F4F6093C600AF
:10E4C0008091C00086FFFCCF8091C0008064809363
:10E4D000C000C9016AE070E00F942EFEC0968093E0
:10E4E000C6008091C00086FFFCCF8091C000806490
:10E4F0008093C00008951F93182F8EE692EE60E07F
:10E500000F94C2F11093C6008091C00086FFFCCF2B
:10E510008091C00080648093C0000F94DCF11F9153
:10E5200008952F923F924F925F926F927F928F92B7
:10E530009F92AF92BF92CF92DF92EF92FF920F9392
:10E540001F93DF93CF93CDB7DEB762970FB6F894E2
:10E55000DEBF0FBECDBF382E622ECA01DB015C01CB
:10E560006D01772420E2222E2E010894411C511CBB
:10E570008BC081E0A81680E0B80681E0C80680E084
:10E58000D80628F0C601AA27BB270F940DF2BB2797
:10E59000AD2D9C2D8B2D0F940DF28A2D0F940DF225
:10E5A0002092C6008091C00086FFFCCF8091C00001
:10E5B00080648093C0009DE29093C6008091C0006B
:10E5C00086FFFCCF8091C00080648093C0002092C1
:10E5D000C6008091C00086FFFCCF8091C00080649F
:10E5E0008093C00019828601750188249924A1E0D6
:10E5F0003A1651F03A1620F0B2E03B1661F409C029
:10E600000BBFF701779007C0C7010F9477FE782EF4
:10E6100002C0F7017080872D0F940DF22092C60082
:10E620008091C00086FFFCCF8091C0008064809301
:10E63000C000872D8052F401EF70F0708F3520F408
:10E64000E40DF51D708204C0E40DF51D8EE280839B
:10E650000894E11CF11C011D111D0894811C911CE2
:10E6600090E18916910409F0C2CF80E190E0A0E02A
:10E67000B0E0A80EB91ECA1EDB1E198AC2010F9493
:10E68000FAF10F94DCF16A94662009F072CF629679
:10E690000FB6F894DEBF0FBECDBFCF91DF911F91B3
:10E6A0000F91FF90EF90DF90CF90BF90AF909F9031
:10E6B0008F907F906F905F904F903F902F90089534
:10E6C0002F923F924F925F926F927F928F929F9282
:10E6D000AF92BF92CF92DF92EF92FF920F931F9370
:10E6E000DF93CF93CDB7DEB7CD53D1400FB6F894BB
:10E6F000DEBF0FBECDBF01E20EBF0FEF0DBF94B75F
:10E70000F894A89514BE80916000886180936000A1
:10E7100010926000789493FF05C0E0910002F091A0
:10E7200001021995279A2F9A8091C00082608093E8
:10E73000C00080E18093C40088E18093C1000000A4
:10E74000EE24FF24870144E0A42EB12CCC24DD2448
:10E7500024C0C5010197F1F70894E11CF11C011DCB
:10E76000111D21E2E2162EE4F20620E0020720E06D
:10E77000120718F031E0C32ED12CC801B70127ECE5
:10E780003BE140E050E00F9441FE611571058105C9
:10E79000910519F485B1805885B98091C00087FD35
:10E7A00003C0C114D104A9F2A6014F5F5F4FC25E3E
:10E7B000DE4F59834883CE51D140C25EDE4F8881FF
:10E7C0009981CE51D140019711F00D9410FEC05D9A
:10E7D000DE4F19821882C053D14060E0C15DDE4F28
:10E7E0001882CF52D14088249924C35DDE4F19820C
:10E7F0001882CD52D140C05EDE4F188219821A8233
:10E800001B82C052D140CE5CDE4F188219821A8220
:10E810001B82C253D140EE24FF2487010BBFF701B6
:10E8200007911691C45CDE4F19830883CC53D14005
:10E830000D940BFEC25EDE4F28813981CE51D1404E
:10E840002130310509F52091C600C25EDE4F1982E4
:10E850001882CE51D14022C02F5F3F4F4F4F5F4FA4
:10E86000213082E138078AE7480780E0580780F0C6
:10E87000C45CDE4FE881F981CC53D140EF5FFF4F9C
:10E8800019F0EE27FF27099420E030E040E050E047
:10E890008091C00087FFE0CF2091C600C35DDE4FAE
:10E8A00048815981CD52D1404F5F5F4FC35DDE4FEC
:10E8B00059834883CD52D140213209F063C64A3092
:10E8C000510508F05FC60894811C911C53E0851621
:10E8D000910409F059C600E010E018C081E280936D
:10E8E000C6008091C00086FFFCCF8091C00080648C
:10E8F0008093C0002F5F3F4F2931310579F70F9486
:10E90000DCF10F5F1F4F0530110519F020E030E0FA
:10E91000E5CF10920A0210920B0210920C02109294
:10E920000D02109206021092070210920802109235
:10E930000902109202021092030210920402109235
:10E9400005028FEE90EE60E00F94F5F180E191EE1C
:10E9500060E00F94C2F18091C00087FFFCCF9091DE
:10E96000C600903608F09F759032B8F09093C600BC
:10E970008091C00086FFFCCF8091C00080648093AE
:10E98000C000A0E2A093C6008091C00086FFFCCF2B
:10E990008091C00080648093C000983409F4D7C18E
:10E9A0009934B8F4923409F459C1933458F490333B
:10E9B00019F1903308F4E3C59F33A1F1903409F0C5
:10E9C000DEC5BDC0953409F470C1963409F0D7C5D1
:10E9D00098C1923509F42BC2933538F49C3409F46C
:10E9E000F5C1913509F0CBC518C2963509F445C279
:10E9F000993509F0C4C567C483E792EE62E00F94CD
:10EA0000F5F110920602109207021092080210927D
:10EA1000090210920A0210920B0210920C0210923C
:10EA20000D0213C18FE792EE62E00F94F5F18FEEC5
:10EA300090EE60E00F94F5F181E291EE60E00F94CA
:10EA4000C2F187EB91EE60E00F94F5F180E391EE77
:10EA500060E00F94C2F184EE90EE60E00F94F5F167
:10EA60008FE391EE60E00F94C2F186E090E061E008
:10EA700070E00F9434F20F94DCF18DE591EE60E0DC
:10EA80000F94C2F189EC91EE60E00F94F5F18EE401
:10EA900091EE60E00F94C2F183EC91EE60E00F9490
:10EAA000F5F18CE691EE60E00F94C2F18EE10F94E7
:10EAB0000DF288E90F940DF281E00F940DF20F949E
:10EAC000DCF18BE791EE60E00F94C2F119E0E0E039
:10EAD000F0E010935700E4918E2F0F940DF20F94F5
:10EAE000DCF18AE891EE60E00F94C2F1E3E0F0E03F
:10EAF00010935700E4918E2F0F940DF20F94DCF1D8
:10EB000089E991EE60E00F94C2F1E2E0F0E0109349
:10EB10005700E4918E2F0F940DF20F94DCF188EAE8
:10EB200091EE60E00F94C2F1E1E0F0E01093570045
:10EB30001491812F0F940DF20F94DCF107CF8BE825
:10EB400092EE62E00F94F5F18BE492EE60E00F94A8
:10EB5000F5F10F94DCF100E010E019C0C8016F2D51
:10EB60000F947FFEFF2031F489E492EE60E00F9471
:10EB7000C2F10BC0F092C6008091C00086FFFCCFAE
:10EB80008091C00080648093C0000F5F1F4FC80158
:10EB900081519F41A0E0B0E0ABBFFC01F790BAE229
:10EBA000FB1621F0E2E000301E07C1F60F94DCF105
:10EBB0000F94DCF187E592EE60E00F94F5F10F948D
:10EBC000DCF1CC24DD2400E010E01EC0C8010F946D
:10EBD00077FEF82E882331F489E492EE60E00F94FA
:10EBE000C2F10BC08093C6008091C00086FFFCCFAD
:10EBF0008091C00080648093C000FE1419F00894D6
:10EC0000C11CD11C0F5F1F4FC80181519F41A0E063
:10EC1000B0E0ABBFFC01E790FAE2EF1621F022E092
:10EC20000030120799F60F94DCF10F94DCF182E6C4
:10EC300092EE60E00F94C2F1C60161E070E00F94C3
:10EC400034F20F94DCF10F94DCF110920202109276
:10EC50000302109204021092050278CE89E992EE26
:10EC600062E00F94F5F1279A2F9A16C02F9880E052
:10EC700090E0E0EDF7E03197F1F7019684369105E9
:10EC8000C1F72F9A80E090E0E0EDF7E03197F1F7DF
:10EC9000019684369105C1F78091C00087FFE6CFC9
:10ECA0008091C00087FFFCCF64C485EA92EE62E0E9
:10ECB0000F94F5F140910202509103026091040219
:10ECC0007091050281E020E10F9491F2809102029F
:10ECD00090910302A0910402B091050280509F4FD1
:10ECE000AF4FBF4F8093020290930302A0930402A0
:10ECF000B093050280509041A040B04008F426CE69
:10ED0000A4CF83EB92EE62E00F94F5F140910602FE
:10ED100050910702609108027091090280E020E1A1
:10ED20000F9491F28091060290910702A09108023F
:10ED3000B091090280509F4FAF4FBF4F80930602A2
:10ED400090930702A0930802B0930902FFCD80ECD4
:10ED500092EE62E00F94F5F183E792EE60E00F949B
:10ED6000F5F18FE792EE60E00F94F5F18BE892EE0B
:10ED700060E00F94F5F189E992EE60E00F94F5F10F
:10ED800085EA92EE60E00F94F5F183EB92EE60E09D
:10ED90000F94F5F180EC92EE60E00F94F5F187ECC2
:10EDA00092EE60E00F94F5F188ED92EE60E00F9442
:10EDB000F5F18FED92EE60E00F94F5F18AEE92EEB0
:10EDC00060E00F94F5F183E093EEBDCD87EC92EE19
:10EDD00062E00F94F5F181E40F947BF282E40F94EA
:10EDE0007BF283E40F947BF284E40F947BF285E45E
:10EDF0000F947BF286E40F947BF287E40F947BF20E
:10EE000088E40F947BF28AE40F947BF28BE40F94F6
:10EE10007BF28CE40F947BF299CD88ED92EE62E068
:10EE20000F94F5F1772473948824992409C48FED05
:10EE300092EE62E00F94F5F140910A0250910B02BC
:10EE400060910C0270910D0282E020E10F9491F22A
:10EE500080910A0290910B02A0910C02B0910D02D8
:10EE600080509F4FAF4FBF4F80930A0290930B0289
:10EE7000A0930C02B0930D0269CD8AEE92EE62E08F
:10EE80000F94F5F184EE90EE60E00F94F5F18FECC5
:10EE900091EE60E00F94F5F1662477244301CC5D98
:10EEA000DE4F19821882C452D140D401C301B695F5
:10EEB000A79597958795CA5DDE4F88839983AA8326
:10EEC000BB83C652D140CC5DDE4FA881B981C4520C
:10EED000D1401196CC5DDE4FB983A883C452D14096
:10EEE000CD0162E070E00F9434F2B0E2B093C6005E
:10EEF0008091C00086FFFCCF8091C0008064809329
:10EF0000C000EDE2E093C6008091C00086FFFCCF18
:10EF10008091C00080648093C000F0E2F093C6004E
:10EF20008091C00086FFFCCF8091C00080648093F8
:10EF3000C000CA5DDE4FE880F9800A811B81C6529D
:10EF4000D140BB27A12F902F8F2D0F940DF2CA5DBA
:10EF5000DE4F8881C652D1400F940DF2B0E2FB2EF5
:10EF6000F092C6008091C00086FFFCCF8091C00067
:10EF700080648093C0000DE30093C6008091C000C0
:10EF800086FFFCCF8091C00080648093C00010E2B7
:10EF90001093C6008091C00086FFFCCF8091C00016
:10EFA00080648093C0008BBEF3012791C65DDE4F65
:10EFB0002883CA52D140A22EBB24CC24DD2408943D
:10EFC000611C711C811C911C8BBEF3018791282E42
:10EFD0003324442455240894611C711C811C911C09
:10EFE0008BBEF3013791C55DDE4F3883CB52D140E4
:10EFF0000894611C711C811C911C8BBEF30147910C
:10F00000C45DDE4F4883CC52D140ADEFEA2EAFEF66
:10F01000FA2EAFEF0A2FAFEF1A2F6E0C7F1C801E57
:10F02000911E142D032DF22CEE24EA0CFB1C0C1D5A
:10F030001D1D0F940DF220E22093C6008091C000A8
:10F0400086FFFCCF8091C00080648093C000C65DC5
:10F05000DE4F8881CA52D1400F940DF230E23093D6
:10F06000C6008091C00086FFFCCF8091C000806404
:10F070008093C000C45DDE4F8881CC52D1400F9494
:10F080000DF240E24093C6008091C00086FFFCCFA5
:10F090008091C00080648093C000C55DDE4F888190
:10F0A000CB52D1400F940DF250E25093C6008091A4
:10F0B000C00086FFFCCF8091C00080648093C000B8
:10F0C0008FEFE8168FEFF80680E0080780E018075A
:10F0D00031F484E092EE60E00F94C2F1DFC0D80119
:10F0E000C7018070907CA070B0708050904CA040A0
:10F0F000B040D1F52FEF3FE340E050E0E222F322B1
:10F1000004231523CA5DDE4FA880B980CA80DB8046
:10F11000C652D140AE0CBF1CC01ED11EAA0CBB1CD7
:10F12000CC1CDD1C8EE092EE60E00F94C2F1BB2798
:10F13000A12F902F8F2D0F940DF28E2D0F940DF285
:10F1400030E23093C6008091C00086FFFCCF8091F2
:10F15000C00080648093C0004EE34093C60080915D
:10F16000C00086FFFCCF87C08EE09EEFA0E0B0E03D
:10F17000E822F9220A231B239CE0E91694E9F90608
:10F1800090E0090790E0190709F088C0C45DDE4FE0
:10F19000A881CC52D140EA2EFF2400E010E0102FCD
:10F1A0000F2DFE2CEE24C55DDE4FB881CB52D14031
:10F1B000EB0EF11C011D111DD601C501817090706F
:10F1C000A070B070DC0199278827E80EF91E0A1F8D
:10F1D0001B1F20EF30E040E050E0A222B322C42207
:10F1E000D52241E1AA0CBB1CCC1CDD1C4A95D1F7F1
:10F1F000EA0CFB1C0C1D1D1D81E090E0A0E0B0E0BE
:10F20000282239224A225B2235E1220C331C441C7D
:10F21000551C3A95D1F7E20CF31C041D151D57013E
:10F220006801AA0CBB1CCC1CDD1C85E192EE60E0E1
:10F230000F94C2F1C801AA27BB270F940DF2BB2778
:10F24000A12F902F8F2D0F940DF28E2D0F940DF274
:10F2500090E29093C6008091C00086FFFCCF809121
:10F26000C00080648093C000AEE3A093C60080918C
:10F27000C00086FFFCCF8091C00080648093C000F6
:10F28000C601AA27BB270F940DF2BB27AD2D9C2DDD
:10F290008B2D0F940DF28A2D0F940DF20F94DCF14B
:10F2A000CC5DDE4FE881F981C452D140F99709F471
:10F2B0004DCBF4E0EF2EF12C012D112D6E0C7F1CA7
:10F2C000801E911EF2CD83E093EE62E00F94F5F183
:10F2D0008AE192EE60E00F94C2F18091C00087FF56
:10F2E000FCCF1091C6001F751093C6008091C0001E
:10F2F00086FFFCCF8091C00080648093C0000F9493
:10F30000DCF1812F81548A3108F036C1163409F4BA
:10F3100095C0173490F4133409F44EC0143430F40B
:10F320001134F1F0123409F01DC130C0143409F465
:10F3300059C0153409F016C16BC01A3409F4C4C0A1
:10F340001B3438F4173409F48FC0183409F00AC19B
:10F35000A1C01B3409F4D2C01C3409F003C1E8C0B9
:10F360008FEF81B90DC082B1809582B980E090E0C5
:10F37000E0EDF7E03197F1F70196883C9105C1F790
:10F380008091C00087FFEFCF12B8EFC08FEF84B934
:10F390000DC085B1809585B980E090E0E0EDF7E0A3
:10F3A0003197F1F70196883C9105C1F78091C00033
:10F3B00087FFEFCF15B8D9C08FEF87B90DC088B1DF
:10F3C000809588B980E090E0E0EDF7E03197F1F7C3
:10F3D0000196883C9105C1F78091C00087FFEFCF6F
:10F3E00018B8C3C08FEF8AB90DC08BB180958BB9A7
:10F3F00080E090E0E0EDF7E03197F1F70196883C8E
:10F400009105C1F78091C00087FFEFCF1BB8ADC059
:10F410008FEF8DB90DC08EB180958EB980E090E0F0
:10F42000E0EDF7E03197F1F70196883C9105C1F7DF
:10F430008091C00087FFEFCF1EB897C08FEF80BBD1
:10F440000DC081B3809581BB80E090E0E0EDF7E0F6
:10F450003197F1F70196883C9105C1F78091C00082
:10F4600087FFEFCF11BA81C08FEF83BB0DC084B38C
:10F47000809584BB80E090E0E0EDF7E03197F1F714
:10F480000196883C9105C1F78091C00087FFEFCFBE
:10F4900014BA6BC08FEF809301010FC080910201FD
:10F4A00080958093020180E090E0E0EDF7E03197F5
:10F4B000F1F70196883C9105C1F78091C00087FF64
:10F4C000EDCF1092020151C08FEF809304010FC065
:10F4D0008091050180958093050180E090E0E0ED4A
:10F4E000F7E03197F1F70196883C9105C1F78091DB
:10F4F000C00087FFEDCF1092050137C08FEF8093DA
:10F5000007010FC08091080180958093080180E079
:10F5100090E0E0EDF7E03197F1F70196883C910536
:10F52000C1F78091C00087FFEDCF109208011DC088
:10F530008FEF80930A010FC080910B01809580931B
:10F540000B0180E090E0E0EDF7E03197F1F70196F4
:10F55000883C9105C1F78091C00087FFEDCF1092E4
:10F560000B0103C085E292EEEEC98091C00087FFD7
:10F57000FCCF8091C600EAC988E392EEE4C98CE131
:10F5800091EEE1C988249924933011F1943028F444
:10F59000913089F09230B8F408C0953061F195301F
:10F5A000F0F0963009F048C043C02B3109F042C951
:10F5B00091E06BE13FC96227C15DDE4F2883CF52E6
:10F5C000D14092E037C9B22FA0E0622793E032C960
:10F5D000822F90E0A82BB92B622794E02BC92E3004
:10F5E00009F039C3622795E0C05DDE4F19821882A9
:10F5F000C053D1401FC9E1E0F0E0EC0FFD1FC05D3A
:10F60000DE4F08811981C053D140E00FF11F2083E4
:10F610000F5F1F4FC05DDE4F19830883C053D14079
:10F6200062270A171B0709F005C9D80196E002C92D
:10F63000261709F010C303C0973009F0FBC87724E0
:10F640009981933109F412C19431C8F4963009F4C8
:10F65000D8C0973050F4923009F406C1933009F4C1
:10F660006DC0913009F059C253C0913109F477C08F
:10F67000923108F0BBC0903109F04FC2F5C098310B
:10F6800009F487C0993150F4953109F4EFC09531F0
:10F6900008F4C6C1963109F040C2C2C19A3109F4DA
:10F6A0006CC09A3108F491C09B3109F45BC09D3164
:10F6B00009F033C29D81903359F48F81882311F46E
:10F6C0009EE11CC0813011F091E018C098E916C08D
:10F6D000892F807591F0903539F4E0E0F0E089E011
:10F6E0008093570094910AC0983539F4E3E0F0E034
:10F6F00089E080935700949101C090E01A821B82A8
:10F700008D818C831D829E831F8227E030E009C299
:10F710001A8288E08B8381E48C8386E58D8382E581
:10F720008E8389E48F8383E5888780E589878FE5E9
:10F730008A8782E38B872BE030E0F3C18A818139AD
:10F7400041F0823941F0803911F48FE005C080E04A
:10F7500003C082E001C08AE01A828B8344C0772410
:10F76000739482C08D81882311F48EE12CC0813086
:10F7700011F081E028C088E926C01A82E1E0F0E0BB
:10F7800089E08093570084918B831C8224E030E0D1
:10F79000C8C18B81803589F48C81883039F4E2E0EE
:10F7A000F0E089E08093570084910DC0E0E0F0E044
:10F7B00089E080935700849106C0E3E0F0E089E09F
:10F7C0008093570084911A82DFCF8D81836C99E0FA
:10F7D000E1E0F0E0082E90935700E89507B600FCB2
:10F7E000FDCF1A821B8223E030E09BC180EC8A832C
:10F7F000CE5CDE4F188219821A821B82C253D1401E
:10F800008EC18A8190E0A0E0B0E0582F44273327D2
:10F8100022278B8190E0A0E0B0E0DC0199278827C7
:10F82000282B392B4A2B5B2B8D8190E0A0E0B0E098
:10F83000282B392B4A2B5B2B8C8190E0A0E0B0E089
:10F84000BA2FA92F982F8827282B392B4A2B5B2BCF
:10F85000220F331F441F551FC05EDE4F288339839C
:10F860004A835B83C052D1401A8259C13A81C95C34
:10F87000DE4F3883C753D140CA5CDE4F1882C6536F
:10F88000D1408B81C82EDD24CA5CDE4F488159816E
:10F89000C653D140C42AD52A933109F082C0CE5C28
:10F8A000DE4F88819981AA81BB81C253D1408050AB
:10F8B000904CA340B04030F583E0CE5CDE4FE88052
:10F8C000F9800A811B81C253D140F70100935B008C
:10F8D00080935700E89507B600FCFDCFCE5CDE4F65
:10F8E000088119812A813B81C253D14000501F4FAA
:10F8F0002F4F3F4FCE5CDE4F088319832A833B8313
:10F90000C253D140C05EDE4F488159816A817B81FC
:10F91000C052D140DE011B9631E08C9111962C91A2
:10F9200011971296C75CDE4F2883C953D140C85C3B
:10F93000DE4F1882C853D14090E0C85CDE4FE881AA
:10F94000F981C853D1408E2B9F2B0C01FA01609393
:10F950005B0030935700E89511244E5F5F4F6F4F67
:10F960007F4F0EEFE02E0FEFF02ECE0CDF1CC114F8
:10F97000D10499F685E0C05EDE4F088119812A81A5
:10F980003B81C052D140F80120935B008093570027
:10F99000E89507B600FCFDCF81E180935700E8951C
:10F9A00035C0C05EDE4F88819981AA81BB81C0527B
:10F9B000D140B695A795979587957C018601ABE0D8
:10F9C000AA2EB12CAC0EBD1E0BC0D5016D915D01F0
:10F9D000C7010F947FFE0894E11CF11C01501040F8
:10F9E0000115110591F7A60160E070E0440F551F65
:10F9F000661F771FC05EDE4FE880F9800A811B8199
:10FA0000C052D1404E0D5F1D601F711F1A82C05E33
:10FA1000DE4F488359836A837B83C052D1407FC0C5
:10FA2000FA80C55CDE4FF882CB53D140C65CDE4F16
:10FA30001882CA53D1408B81C82EDD24C65CDE4FAC
:10FA400008811981CA53D140C02AD12A1A828981DA
:10FA5000BE016D5F7F4F843121F59601C05EDE4FA0
:10FA6000E880F9800A811B81C052D1400BBFF701A9
:10FA700087919691DB018C9311969C936E5F7F4FDB
:10FA8000D801C7010296A11DB11DC05EDE4F88835B
:10FA90009983AA83BB83C052D14022503040F1F6F3
:10FAA00036C0C05EDE4F288139814A815B81C052F9
:10FAB000D1400894C108D108760100E010E0089414
:10FAC000C11CD11C0894E11CF11C011D111DE20E8A
:10FAD000F31E041F151F21BDBB27A52F942F832FB5
:10FAE00082BD2F5F3F4F4F4F5F4FF89A80B5DB01CC
:10FAF0008D93BD012E153F054007510761F7C05E8C
:10FB0000DE4F288339834A835B83C052D1409601FC
:10FB10002D5F3F4FFB01108204C080EC8A8322E0FE
:10FB200030E08BE18093C6008091C00086FFFCCF5F
:10FB30008091C00080648093C000C15DDE4FF88179
:10FB4000CF52D140F093C6008091C00086FFFCCF19
:10FB50008091C00080648093C000432F3093C60022
:10FB60008091C00086FFFCCF8091C00080648093AC
:10FB7000C000922F2093C6008091C00086FFFCCF6A
:10FB80008091C00080648093C0008EE08093C600A6
:10FB90008091C00086FFFCCF8091C000806480937C
:10FBA000C00065E1C15DDE4FE880CF52D1406E25D7
:10FBB00069276427FE01319610C090819093C6009A
:10FBC0008091C00086FFFCCF31968091C000806498
:10FBD0008093C0006927215030402115310569F715
:10FBE0006093C6008091C00086FFFCCF8091C0006A
:10FBF00080648093C00085B1805885B9772081F4F6
:10FC0000C15DDE4F0881CF52D1400F5FC15DDE4F35
:10FC10000883CF52D14090E0A0E0B0E00D941AF4F8
:10FC200027982F9880E090E020ED37E0F901319798
:10FC3000F1F7019684369105C9F700008091C00064
:10FC40008D7F8093C00081E180935700E895EE2777
:10FC5000FF270994FFCF90E00D941AF497FB092E2B
:10FC600007260AD077FD04D02ED006D000201AF443
:10FC7000709561957F4F0895F6F7909581959F4F08
:10FC80000895A1E21A2EAA1BBB1BFD010DC0AA1FDD
:10FC9000BB1FEE1FFF1FA217B307E407F50720F0F5
:10FCA000A21BB30BE40BF50B661F771F881F991F70
:10FCB0001A9469F760957095809590959B01AC01B9
:10FCC000BD01CF010895AA1BBB1B51E107C0AA1FAC
:10FCD000BB1FA617B70710F0A61BB70B881F991FED
:10FCE0005A95A9F780959095BC01CD010895F99991
:10FCF000FECF92BD81BDF89A992780B50895262F31
:10FD0000F999FECF1FBA92BD81BD20BD0FB6F89400
:0EFD1000FA9AF99A0FBE01960895F894FFCF63
:040000033000E000E9
:00000001FF
